{
  "contractName": "IntegrityContract",
  "abi": [
    {
      "inputs": [
        {
          "internalType": "string",
          "name": "",
          "type": "string"
        }
      ],
      "name": "Orgaddress",
      "outputs": [
        {
          "internalType": "address",
          "name": "",
          "type": "address"
        }
      ],
      "stateMutability": "view",
      "type": "function",
      "constant": true
    },
    {
      "inputs": [
        {
          "internalType": "uint256",
          "name": "",
          "type": "uint256"
        }
      ],
      "name": "allassets",
      "outputs": [
        {
          "internalType": "string",
          "name": "assetId",
          "type": "string"
        },
        {
          "internalType": "string",
          "name": "assetName",
          "type": "string"
        },
        {
          "internalType": "string",
          "name": "assetCategory",
          "type": "string"
        },
        {
          "internalType": "string",
          "name": "assetHash",
          "type": "string"
        },
        {
          "internalType": "string",
          "name": "assetTags",
          "type": "string"
        }
      ],
      "stateMutability": "view",
      "type": "function",
      "constant": true
    },
    {
      "inputs": [
        {
          "internalType": "string",
          "name": "_assetId",
          "type": "string"
        },
        {
          "internalType": "string",
          "name": "_assetName",
          "type": "string"
        },
        {
          "internalType": "string",
          "name": "_assetCategory",
          "type": "string"
        },
        {
          "internalType": "string",
          "name": "_assetHash",
          "type": "string"
        },
        {
          "internalType": "string",
          "name": "_assetTags",
          "type": "string"
        },
        {
          "internalType": "string",
          "name": "_orgHash",
          "type": "string"
        },
        {
          "internalType": "string",
          "name": "_orgName",
          "type": "string"
        }
      ],
      "name": "addAsset",
      "outputs": [],
      "stateMutability": "nonpayable",
      "type": "function"
    },
    {
      "inputs": [
        {
          "internalType": "string",
          "name": "_orgHash",
          "type": "string"
        },
        {
          "internalType": "string",
          "name": "_orgName",
          "type": "string"
        }
      ],
      "name": "createOrgContract",
      "outputs": [
        {
          "internalType": "address",
          "name": "",
          "type": "address"
        }
      ],
      "stateMutability": "nonpayable",
      "type": "function"
    },
    {
      "inputs": [
        {
          "internalType": "address",
          "name": "orgContractAddress",
          "type": "address"
        }
      ],
      "name": "getOrgContractData",
      "outputs": [
        {
          "internalType": "string",
          "name": "",
          "type": "string"
        },
        {
          "internalType": "string",
          "name": "",
          "type": "string"
        }
      ],
      "stateMutability": "view",
      "type": "function",
      "constant": true
    }
  ],
  "bytecode": "0x608060405234801561001057600080fd5b506118ef806100206000396000f3fe60806040523480156200001157600080fd5b50600436106200005d5760003560e01c8062db5f76146200006257806364c75ff1146200009c5780637db7063d14620000d2578063975d50a61462000108578063fb1c576d146200013f575b600080fd5b6200008060048036038101906200007a919062000950565b6200015f565b6040516200009395949392919062000a26565b60405180910390f35b620000ba6004803603810190620000b4919062000bf7565b62000476565b604051620000c9919062000c8d565b60405180910390f35b620000f06004803603810190620000ea919062000caa565b620004bf565b604051620000ff919062000c8d565b60405180910390f35b62000126600480360381019062000120919062000d60565b62000509565b6040516200013692919062000d92565b60405180910390f35b6200015d600480360381019062000157919062000dcd565b62000609565b005b600181815481106200017057600080fd5b9060005260206000209060050201600091509050806000018054620001959062000f88565b80601f0160208091040260200160405190810160405280929190818152602001828054620001c39062000f88565b8015620002145780601f10620001e85761010080835404028352916020019162000214565b820191906000526020600020905b815481529060010190602001808311620001f657829003601f168201915b5050505050908060010180546200022b9062000f88565b80601f0160208091040260200160405190810160405280929190818152602001828054620002599062000f88565b8015620002aa5780601f106200027e57610100808354040283529160200191620002aa565b820191906000526020600020905b8154815290600101906020018083116200028c57829003601f168201915b505050505090806002018054620002c19062000f88565b80601f0160208091040260200160405190810160405280929190818152602001828054620002ef9062000f88565b8015620003405780601f10620003145761010080835404028352916020019162000340565b820191906000526020600020905b8154815290600101906020018083116200032257829003601f168201915b505050505090806003018054620003579062000f88565b80601f0160208091040260200160405190810160405280929190818152602001828054620003859062000f88565b8015620003d65780601f10620003aa57610100808354040283529160200191620003d6565b820191906000526020600020905b815481529060010190602001808311620003b857829003601f168201915b505050505090806004018054620003ed9062000f88565b80601f01602080910402602001604051908101604052809291908181526020018280546200041b9062000f88565b80156200046c5780601f1062000440576101008083540402835291602001916200046c565b820191906000526020600020905b8154815290600101906020018083116200044e57829003601f168201915b5050505050905085565b6000818051602081018201805184825260208301602085012081835280955050505050506000915054906101000a900473ffffffffffffffffffffffffffffffffffffffff1681565b6000808383604051620004d29062000843565b620004df92919062000d92565b604051809103906000f080158015620004fc573d6000803e3d6000fd5b5090508091505092915050565b60608060008390508073ffffffffffffffffffffffffffffffffffffffff166304a376146040518163ffffffff1660e01b8152600401600060405180830381865afa1580156200055d573d6000803e3d6000fd5b505050506040513d6000823e3d601f19601f820116820180604052508101906200058891906200103c565b8173ffffffffffffffffffffffffffffffffffffffff16631386dc2d6040518163ffffffff1660e01b8152600401600060405180830381865afa158015620005d4573d6000803e3d6000fd5b505050506040513d6000823e3d601f19601f82011682018060405250810190620005ff91906200103c565b9250925050915091565b60208751111562000651576040517f08c379a00000000000000000000000000000000000000000000000000000000081526004016200064890620010dd565b60405180910390fd5b60408651111562000699576040517f08c379a000000000000000000000000000000000000000000000000000000000815260040162000690906200114f565b60405180910390fd5b600c85511115620006e1576040517f08c379a0000000000000000000000000000000000000000000000000000000008152600401620006d890620011e7565b60405180910390fd5b60016040518060a0016040528089815260200188815260200187815260200186815260200185815250908060018154018082558091505060019003906000526020600020906005020160009091909190915060008201518160000190805190602001906200075192919062000851565b5060208201518160010190805190602001906200077092919062000851565b5060408201518160020190805190602001906200078f92919062000851565b506060820151816003019080519060200190620007ae92919062000851565b506080820151816004019080519060200190620007cd92919062000851565b505050620007dc8282620004bf565b600088604051620007ee91906200124b565b908152602001604051809103902060006101000a81548173ffffffffffffffffffffffffffffffffffffffff021916908373ffffffffffffffffffffffffffffffffffffffff16021790555050505050505050565b610655806200126583390190565b8280546200085f9062000f88565b90600052602060002090601f016020900481019282620008835760008555620008cf565b82601f106200089e57805160ff1916838001178555620008cf565b82800160010185558215620008cf579182015b82811115620008ce578251825591602001919060010190620008b1565b5b509050620008de9190620008e2565b5090565b5b80821115620008fd576000816000905550600101620008e3565b5090565b6000604051905090565b600080fd5b600080fd5b6000819050919050565b6200092a8162000915565b81146200093657600080fd5b50565b6000813590506200094a816200091f565b92915050565b6000602082840312156200096957620009686200090b565b5b6000620009798482850162000939565b91505092915050565b600081519050919050565b600082825260208201905092915050565b60005b83811015620009be578082015181840152602081019050620009a1565b83811115620009ce576000848401525b50505050565b6000601f19601f8301169050919050565b6000620009f28262000982565b620009fe81856200098d565b935062000a108185602086016200099e565b62000a1b81620009d4565b840191505092915050565b600060a082019050818103600083015262000a428188620009e5565b9050818103602083015262000a588187620009e5565b9050818103604083015262000a6e8186620009e5565b9050818103606083015262000a848185620009e5565b9050818103608083015262000a9a8184620009e5565b90509695505050505050565b600080fd5b600080fd5b7f4e487b7100000000000000000000000000000000000000000000000000000000600052604160045260246000fd5b62000aea82620009d4565b810181811067ffffffffffffffff8211171562000b0c5762000b0b62000ab0565b5b80604052505050565b600062000b2162000901565b905062000b2f828262000adf565b919050565b600067ffffffffffffffff82111562000b525762000b5162000ab0565b5b62000b5d82620009d4565b9050602081019050919050565b82818337600083830152505050565b600062000b9062000b8a8462000b34565b62000b15565b90508281526020810184848401111562000baf5762000bae62000aab565b5b62000bbc84828562000b6a565b509392505050565b600082601f83011262000bdc5762000bdb62000aa6565b5b813562000bee84826020860162000b79565b91505092915050565b60006020828403121562000c105762000c0f6200090b565b5b600082013567ffffffffffffffff81111562000c315762000c3062000910565b5b62000c3f8482850162000bc4565b91505092915050565b600073ffffffffffffffffffffffffffffffffffffffff82169050919050565b600062000c758262000c48565b9050919050565b62000c878162000c68565b82525050565b600060208201905062000ca4600083018462000c7c565b92915050565b6000806040838503121562000cc45762000cc36200090b565b5b600083013567ffffffffffffffff81111562000ce55762000ce462000910565b5b62000cf38582860162000bc4565b925050602083013567ffffffffffffffff81111562000d175762000d1662000910565b5b62000d258582860162000bc4565b9150509250929050565b62000d3a8162000c68565b811462000d4657600080fd5b50565b60008135905062000d5a8162000d2f565b92915050565b60006020828403121562000d795762000d786200090b565b5b600062000d898482850162000d49565b91505092915050565b6000604082019050818103600083015262000dae8185620009e5565b9050818103602083015262000dc48184620009e5565b90509392505050565b600080600080600080600060e0888a03121562000def5762000dee6200090b565b5b600088013567ffffffffffffffff81111562000e105762000e0f62000910565b5b62000e1e8a828b0162000bc4565b975050602088013567ffffffffffffffff81111562000e425762000e4162000910565b5b62000e508a828b0162000bc4565b965050604088013567ffffffffffffffff81111562000e745762000e7362000910565b5b62000e828a828b0162000bc4565b955050606088013567ffffffffffffffff81111562000ea65762000ea562000910565b5b62000eb48a828b0162000bc4565b945050608088013567ffffffffffffffff81111562000ed85762000ed762000910565b5b62000ee68a828b0162000bc4565b93505060a088013567ffffffffffffffff81111562000f0a5762000f0962000910565b5b62000f188a828b0162000bc4565b92505060c088013567ffffffffffffffff81111562000f3c5762000f3b62000910565b5b62000f4a8a828b0162000bc4565b91505092959891949750929550565b7f4e487b7100000000000000000000000000000000000000000000000000000000600052602260045260246000fd5b6000600282049050600182168062000fa157607f821691505b6020821081141562000fb85762000fb762000f59565b5b50919050565b600062000fd562000fcf8462000b34565b62000b15565b90508281526020810184848401111562000ff45762000ff362000aab565b5b620010018482856200099e565b509392505050565b600082601f83011262001021576200102062000aa6565b5b81516200103384826020860162000fbe565b91505092915050565b6000602082840312156200105557620010546200090b565b5b600082015167ffffffffffffffff81111562001076576200107562000910565b5b620010848482850162001009565b91505092915050565b7f4173736574204944206578636565647320333220636861726163746572730000600082015250565b6000620010c5601e836200098d565b9150620010d2826200108d565b602082019050919050565b60006020820190508181036000830152620010f881620010b6565b9050919050565b7f4173736574206e616d6520657863656564732036342063686172616374657273600082015250565b6000620011376020836200098d565b91506200114482620010ff565b602082019050919050565b600060208201905081810360008301526200116a8162001128565b9050919050565b7f41737365742063617465676f727920657863656564732031322063686172616360008201527f7465727300000000000000000000000000000000000000000000000000000000602082015250565b6000620011cf6024836200098d565b9150620011dc8262001171565b604082019050919050565b600060208201905081810360008301526200120281620011c0565b9050919050565b600081905092915050565b6000620012218262000982565b6200122d818562001209565b93506200123f8185602086016200099e565b80840191505092915050565b600062001259828462001214565b91508190509291505056fe608060405234801561001057600080fd5b5060405161065538038061065583398181016040528101906100329190610288565b8160009080519060200190610048929190610067565b50806001908051906020019061005f929190610067565b505050610361565b8280546100739061032f565b90600052602060002090601f01602090048101928261009557600085556100dc565b82601f106100ae57805160ff19168380011785556100dc565b828001600101855582156100dc579182015b828111156100db5782518255916020019190600101906100c0565b5b5090506100e991906100ed565b5090565b5b808211156101065760008160009055506001016100ee565b5090565b6000604051905090565b600080fd5b600080fd5b600080fd5b600080fd5b6000601f19601f8301169050919050565b7f4e487b7100000000000000000000000000000000000000000000000000000000600052604160045260246000fd5b61017182610128565b810181811067ffffffffffffffff821117156101905761018f610139565b5b80604052505050565b60006101a361010a565b90506101af8282610168565b919050565b600067ffffffffffffffff8211156101cf576101ce610139565b5b6101d882610128565b9050602081019050919050565b60005b838110156102035780820151818401526020810190506101e8565b83811115610212576000848401525b50505050565b600061022b610226846101b4565b610199565b90508281526020810184848401111561024757610246610123565b5b6102528482856101e5565b509392505050565b600082601f83011261026f5761026e61011e565b5b815161027f848260208601610218565b91505092915050565b6000806040838503121561029f5761029e610114565b5b600083015167ffffffffffffffff8111156102bd576102bc610119565b5b6102c98582860161025a565b925050602083015167ffffffffffffffff8111156102ea576102e9610119565b5b6102f68582860161025a565b9150509250929050565b7f4e487b7100000000000000000000000000000000000000000000000000000000600052602260045260246000fd5b6000600282049050600182168061034757607f821691505b6020821081141561035b5761035a610300565b5b50919050565b6102e5806103706000396000f3fe608060405234801561001057600080fd5b50600436106100365760003560e01c806304a376141461003b5780631386dc2d14610059575b600080fd5b610043610077565b604051610050919061022c565b60405180910390f35b610061610105565b60405161006e919061022c565b60405180910390f35b600080546100849061027d565b80601f01602080910402602001604051908101604052809291908181526020018280546100b09061027d565b80156100fd5780601f106100d2576101008083540402835291602001916100fd565b820191906000526020600020905b8154815290600101906020018083116100e057829003601f168201915b505050505081565b600180546101129061027d565b80601f016020809104026020016040519081016040528092919081815260200182805461013e9061027d565b801561018b5780601f106101605761010080835404028352916020019161018b565b820191906000526020600020905b81548152906001019060200180831161016e57829003601f168201915b505050505081565b600081519050919050565b600082825260208201905092915050565b60005b838110156101cd5780820151818401526020810190506101b2565b838111156101dc576000848401525b50505050565b6000601f19601f8301169050919050565b60006101fe82610193565b610208818561019e565b93506102188185602086016101af565b610221816101e2565b840191505092915050565b6000602082019050818103600083015261024681846101f3565b905092915050565b7f4e487b7100000000000000000000000000000000000000000000000000000000600052602260045260246000fd5b6000600282049050600182168061029557607f821691505b602082108114156102a9576102a861024e565b5b5091905056fea26469706673582212201bbbddce5846f2a4e0186a821e6c4040fdc5e2f1df3ac87277890beea15f7f4364736f6c634300080b0033a2646970667358221220ab55e37d72f18fdbf7be8e2879e71843c672f12c1fda0d22c14d2066feeb8de764736f6c634300080b0033",
  "immutableReferences": {},
  "source": "//SPDX-License-Identifier:UNLICENSED\r\n\r\npragma solidity ^0.8.9;\r\n\r\ncontract IntegrityContract {\r\n    struct Asset {\r\n        string assetId;\r\n        string assetName;\r\n        string assetCategory;\r\n        string assetHash;\r\n        string assetTags;\r\n    }\r\n\r\n    mapping(string => address) public Orgaddress;\r\n    Asset[] public allassets;\r\n\r\n    function addAsset(\r\n        string memory _assetId,\r\n        string memory _assetName,\r\n        string memory _assetCategory,\r\n        string memory _assetHash,\r\n        string memory _assetTags,\r\n        string memory _orgHash,\r\n        string memory _orgName\r\n    ) public {\r\n        require(bytes(_assetId).length <= 32, \"Asset ID exceeds 32 characters\");\r\n        require(\r\n            bytes(_assetName).length <= 64,\r\n            \"Asset name exceeds 64 characters\"\r\n        );\r\n        require(\r\n            bytes(_assetCategory).length <= 12,\r\n            \"Asset category exceeds 12 characters\"\r\n        );\r\n        allassets.push(\r\n            Asset(_assetId, _assetName, _assetCategory, _assetHash, _assetTags)\r\n        );\r\n        // assets[_assetId] = Asset(_assetId, _assetName, _assetCategory, _assetHash, _assetTags, _orgContractAddress);\r\n        Orgaddress[_assetId] = createOrgContract(_orgHash, _orgName);\r\n    }\r\n\r\n    function createOrgContract(\r\n        string memory _orgHash,\r\n        string memory _orgName\r\n    ) public returns (address) {\r\n        address newOrgContract = address(new OrgContract(_orgHash, _orgName));\r\n        return newOrgContract;\r\n    }\r\n\r\n    function getOrgContractData(\r\n        address orgContractAddress\r\n    ) public view returns (string memory, string memory) {\r\n        OrgContract orgContract = OrgContract(orgContractAddress);\r\n        return (orgContract.orgHash(), orgContract.orgName());\r\n    }\r\n}\r\n\r\ncontract OrgContract {\r\n    string public orgHash;\r\n    string public orgName;\r\n\r\n    constructor(string memory _orgHash, string memory _orgName) {\r\n        orgHash = _orgHash;\r\n        orgName = _orgName;\r\n    }\r\n}\r\n",
  "sourcePath": "D:\\intern\\truffle\\contracts\\IntegrityContract.sol",
  "compiler": {
    "name": "solc",
    "version": "0.8.11+commit.d7f03943.Emscripten.clang"
  },
  "schemaVersion": "3.4.4",
  "updatedAt": "2024-01-29T17:30:49.163Z",
  "networkType": "ethereum",
  "devdoc": {
    "kind": "dev",
    "methods": {},
    "version": 1
  },
  "userdoc": {
    "kind": "user",
    "methods": {},
    "version": 1
  }
}