{
  "contractName": "OrgContract",
  "abi": [
    {
      "inputs": [
        {
          "internalType": "string",
          "name": "_orgHash",
          "type": "string"
        },
        {
          "internalType": "string",
          "name": "_orgName",
          "type": "string"
        }
      ],
      "stateMutability": "nonpayable",
      "type": "constructor"
    },
    {
      "inputs": [],
      "name": "orgHash",
      "outputs": [
        {
          "internalType": "string",
          "name": "",
          "type": "string"
        }
      ],
      "stateMutability": "view",
      "type": "function"
    },
    {
      "inputs": [],
      "name": "orgName",
      "outputs": [
        {
          "internalType": "string",
          "name": "",
          "type": "string"
        }
      ],
      "stateMutability": "view",
      "type": "function"
    }
  ],
  "bytecode": "0x608060405234801561001057600080fd5b5060405161065538038061065583398181016040528101906100329190610288565b8160009080519060200190610048929190610067565b50806001908051906020019061005f929190610067565b505050610361565b8280546100739061032f565b90600052602060002090601f01602090048101928261009557600085556100dc565b82601f106100ae57805160ff19168380011785556100dc565b828001600101855582156100dc579182015b828111156100db5782518255916020019190600101906100c0565b5b5090506100e991906100ed565b5090565b5b808211156101065760008160009055506001016100ee565b5090565b6000604051905090565b600080fd5b600080fd5b600080fd5b600080fd5b6000601f19601f8301169050919050565b7f4e487b7100000000000000000000000000000000000000000000000000000000600052604160045260246000fd5b61017182610128565b810181811067ffffffffffffffff821117156101905761018f610139565b5b80604052505050565b60006101a361010a565b90506101af8282610168565b919050565b600067ffffffffffffffff8211156101cf576101ce610139565b5b6101d882610128565b9050602081019050919050565b60005b838110156102035780820151818401526020810190506101e8565b83811115610212576000848401525b50505050565b600061022b610226846101b4565b610199565b90508281526020810184848401111561024757610246610123565b5b6102528482856101e5565b509392505050565b600082601f83011261026f5761026e61011e565b5b815161027f848260208601610218565b91505092915050565b6000806040838503121561029f5761029e610114565b5b600083015167ffffffffffffffff8111156102bd576102bc610119565b5b6102c98582860161025a565b925050602083015167ffffffffffffffff8111156102ea576102e9610119565b5b6102f68582860161025a565b9150509250929050565b7f4e487b7100000000000000000000000000000000000000000000000000000000600052602260045260246000fd5b6000600282049050600182168061034757607f821691505b6020821081141561035b5761035a610300565b5b50919050565b6102e5806103706000396000f3fe608060405234801561001057600080fd5b50600436106100365760003560e01c806304a376141461003b5780631386dc2d14610059575b600080fd5b610043610077565b604051610050919061022c565b60405180910390f35b610061610105565b60405161006e919061022c565b60405180910390f35b600080546100849061027d565b80601f01602080910402602001604051908101604052809291908181526020018280546100b09061027d565b80156100fd5780601f106100d2576101008083540402835291602001916100fd565b820191906000526020600020905b8154815290600101906020018083116100e057829003601f168201915b505050505081565b600180546101129061027d565b80601f016020809104026020016040519081016040528092919081815260200182805461013e9061027d565b801561018b5780601f106101605761010080835404028352916020019161018b565b820191906000526020600020905b81548152906001019060200180831161016e57829003601f168201915b505050505081565b600081519050919050565b600082825260208201905092915050565b60005b838110156101cd5780820151818401526020810190506101b2565b838111156101dc576000848401525b50505050565b6000601f19601f8301169050919050565b60006101fe82610193565b610208818561019e565b93506102188185602086016101af565b610221816101e2565b840191505092915050565b6000602082019050818103600083015261024681846101f3565b905092915050565b7f4e487b7100000000000000000000000000000000000000000000000000000000600052602260045260246000fd5b6000600282049050600182168061029557607f821691505b602082108114156102a9576102a861024e565b5b5091905056fea26469706673582212201bbbddce5846f2a4e0186a821e6c4040fdc5e2f1df3ac87277890beea15f7f4364736f6c634300080b0033",
  "immutableReferences": {},
  "source": "//SPDX-License-Identifier:UNLICENSED\r\n\r\npragma solidity ^0.8.9;\r\n\r\ncontract IntegrityContract {\r\n    struct Asset {\r\n        string assetId;\r\n        string assetName;\r\n        string assetCategory;\r\n        string assetHash;\r\n        string assetTags;\r\n    }\r\n\r\n    mapping(string => address) public Orgaddress;\r\n    Asset[] public allassets;\r\n\r\n    function addAsset(\r\n        string memory _assetId,\r\n        string memory _assetName,\r\n        string memory _assetCategory,\r\n        string memory _assetHash,\r\n        string memory _assetTags,\r\n        string memory _orgHash,\r\n        string memory _orgName\r\n    ) public {\r\n        require(bytes(_assetId).length <= 32, \"Asset ID exceeds 32 characters\");\r\n        require(\r\n            bytes(_assetName).length <= 64,\r\n            \"Asset name exceeds 64 characters\"\r\n        );\r\n        require(\r\n            bytes(_assetCategory).length <= 12,\r\n            \"Asset category exceeds 12 characters\"\r\n        );\r\n        allassets.push(\r\n            Asset(_assetId, _assetName, _assetCategory, _assetHash, _assetTags)\r\n        );\r\n        // assets[_assetId] = Asset(_assetId, _assetName, _assetCategory, _assetHash, _assetTags, _orgContractAddress);\r\n        Orgaddress[_assetId] = createOrgContract(_orgHash, _orgName);\r\n    }\r\n\r\n    function createOrgContract(\r\n        string memory _orgHash,\r\n        string memory _orgName\r\n    ) public returns (address) {\r\n        address newOrgContract = address(new OrgContract(_orgHash, _orgName));\r\n        return newOrgContract;\r\n    }\r\n\r\n    function getOrgContractData(\r\n        address orgContractAddress\r\n    ) public view returns (string memory, string memory) {\r\n        OrgContract orgContract = OrgContract(orgContractAddress);\r\n        return (orgContract.orgHash(), orgContract.orgName());\r\n    }\r\n}\r\n\r\ncontract OrgContract {\r\n    string public orgHash;\r\n    string public orgName;\r\n\r\n    constructor(string memory _orgHash, string memory _orgName) {\r\n        orgHash = _orgHash;\r\n        orgName = _orgName;\r\n    }\r\n}\r\n",
  "sourcePath": "D:\\intern\\truffle\\contracts\\IntegrityContract.sol",
  "compiler": {
    "name": "solc",
    "version": "0.8.11+commit.d7f03943.Emscripten.clang"
  },
  "schemaVersion": "3.4.4",
  "updatedAt": "2024-01-29T17:29:30.126Z",
  "devdoc": {
    "kind": "dev",
    "methods": {},
    "version": 1
  },
  "userdoc": {
    "kind": "user",
    "methods": {},
    "version": 1
  }
}